:100000000EC013C012C011C010C00FC00EC00DC072
:100010000CC00BC00AC009C008C007C006C011242C
:100020001FBECFEDCDBFC6D16FC3EACF9FB7F89447
:10003000E8B3EE7FE8BB0000000000000000000015
:10004000EDECF0E03197F1F70000E8B380FDE160FE
:1000500080FFEE7FE8BB089487952A9589F79FBFBC
:100060000895CF93DF93EC018991882311F0DEDFAF
:10007000FBCFDF91CF9108954F925F926F927F9265
:100080008F929F92AF92BF92CF92DF92EF92FF92A8
:100090001F93CF93DF936B017C01EA01122F20E0C5
:1000A00030E0A901D1D181110CC080E38883111106
:1000B00002C0FE01B3C09EE29983FE0133968A839B
:1000C000AEC046015701D701C60137E1B595A795E6
:1000D000979587953A95D1F7282F30E0C9018F572A
:1000E0009109E894E7F8FF246894E7F88F319105C7
:1000F0000CF099C0893E4FEF94070CF497C08731FC
:1001000091058CF026593109C701B60104C0660F6C
:10011000771F881F991F2A95D2F7C12CD12C760101
:10012000B7FC2FC031C097FD1EC0E7E1F0E02F0102
:10013000481A590AC2012601370104C07594679410
:10014000579447948A95D2F7C301B2012E573109CB
:1001500004C0CC0CDD1CEE1CFF1C2A95D2F7FF243A
:10016000B7FE1CC00EC08095909504C0F594E7942E
:10017000D794C7948A95D2F7B7FE0BC060E070E0C1
:10018000CB012DE22883219661157105810591052A
:1001900029F4FE01319680E3888308C02AE0AE018D
:1001A00074D2FE01219680818111FBCF1123B9F118
:1001B0008EE28083C114D104E104F10421F480E3D0
:1001C000818332962CC03196DF0180E0B701A60111
:1001D00093E0440F551F661F771F9A95D1F7CC0CFB
:1001E000DD1CEE1CFF1C4C0D5D1D6E1D7F1D90E384
:1001F000970F9D936A017B01FF248F5F1813E6CF51
:10020000212F30E021503109E20FF31FCF0120816F
:10021000203319F422912E32C9F7FC013196108255
:1002200080E090E005C08EEF9FEF02C08FEF9FEF60
:10023000DF91CF911F91FF90EF90DF90CF90BF9013
:10024000AF909F908F907F906F905F904F900895A8
:1002500098B321E030E001C0220F8A95EAF720959B
:10026000292328BB089598B321E030E001C0220F74
:100270008A95EAF7292B28BB089526B330E0A90117
:1002800002C0559547958A95E2F7CA018170089595
:10029000DF92EF92FF920F931F93CF93DF93EC01C6
:1002A0008881D6DF8FE99FE00197F1F700C0000059
:1002B0008881D9DF9FEF2EE585E091502040804076
:1002C000E1F700C000008881C3DF8A81CCDF8FECBA
:1002D00097E00197F1F700C000008A81B9DF8BE059
:1002E000E82EF12C00E010E08A81BDDF8981C5DFB6
:1002F00090E00E2C02C0880F991F0A94E2F7080FB5
:10030000191F8A81A5DF91E0E91AF10868F78A814F
:10031000AADF8981B2DFD82E8A819ADF8A81A3DFA2
:100320008FEC97E00197F1F700C000008A8190DF21
:100330008A8199DF8FEC97E00197F1F700C0000008
:100340008A8186DF88818FDFB80180E090E080D0ED
:1003500020E030E040E85EE3DCD07B018C0120E06F
:1003600030E048EC52E470D018164CF026EB33EF36
:100370004DE75FE3B701C801CCD07B018C01DD20E4
:1003800059F0688170E0719561957109072E000C34
:10039000880B990B5FD002C0B701C8018B019C018B
:1003A000C901B801DF91CF911F910F91FF90EF909C
:1003B000DF900895CF93DF93CDB7DD27C650CDBF33
:1003C000C09AB89A84E0898381E08A8382E08B8333
:1003D000B99827B381E090E0AC01098002C0440FD6
:1003E000551F0A94E2F70B8002C0880F991F0A94E8
:1003F000E2F7842B822B87BB898135DF8BE390E08A
:100400009D838C831E82CE01019642DF22E0AE01E5
:100410004A5F5F4F31DE2FEF89E698E1215080403F
:100420009040E1F700C00000CE0106961ADECE0132
:10043000049617DE2FEF89E698E121508040904026
:10044000E1F700C00000DFCF40D008F481E008955C
:10045000E89409C097FB3EF490958095709561955E
:100460007F4F8F4F9F4F9923A9F0F92F96E9BB2714
:100470009395F695879577956795B795F111F8CF90
:10048000FAF4BB0F11F460FF1BC06F5F7F4F8F4FFB
:100490009F4F16C0882311F096E911C0772321F0F1
:1004A0009EE8872F762F05C0662371F096E8862F89
:1004B00070E060E02AF09A95660F771F881FDAF7E0
:1004C000880F9695879597F90895990F0008550F0D
:1004D000AA0BE0E8FEEF16161706E807F907C0F0CA
:1004E00012161306E407F50798F0621B730B840BD2
:1004F000950B39F40A2661F0232B242B252B21F4AC
:1005000008950A2609F4A140A6958FEF811D811D4B
:1005100008950AD080C071D028F076D018F09523C5
:1005200009F062C067C0ABC087D0A8F39923D9F3A4
:100530005523C9F3950F50E0551FAA27EE27FF2733
:10054000BB2700240894679520F4E20FF31FB41F23
:100550000A1E220F331F441FAA1F6695A9F777951D
:1005600030F4F30FB41F0A1E121E08F46395330F04
:10057000441FAA1F221F769599F7879520F4B40F80
:100580000A1E121E631F440FAA1F221F331F8695C7
:10059000A9F7862F712D602D11249F5750408AF0A6
:1005A000E1F088234AF0EE0FFF1FBB1F661F771F85
:1005B000881F91505040A9F79E3F510570F014C01C
:1005C0005EC05F3FECF3983EDCF3869577956795C8
:1005D000B795F795E7959F5FC1F7FE2B880F911DA3
:1005E0009695879597F9089597F99F6780E870E049
:1005F00060E008959FEF80EC089500240A94161699
:10060000170618060906089500240A941216130600
:10061000140605060895092E0394000C11F488238E
:1006200052F0BB0F40F4BF2B11F460FF04C06F5FAA
:100630007F4F8F4F9F4F089557FD9058440F551F80
:1006400059F05F3F71F04795880F97FB991F61F054
:100650009F3F79F087950895121613061406551FCB
:10066000F2CF4695F1DF08C0161617061806991F37
:10067000F1CF86957105610508940895E894BB272C
:1006800066277727CB0197F90895BB272A3051F4C5
:10069000992342F4BDE290958095709561957F4FC6
:1006A0008F4F9F4F01C0BB27FA01A62F621771051C
:1006B00081059105330B30FB66F0AA27660F771F83
:1006C000881F991FAA1FA21710F0A21B639538500C
:1006D000A9F7A05DAA3308F0A95DA19336F7B1117F
:1006E000B1931082CA0100C0DC01FC01672F719137
:1006F0007723E1F7329704C07C916D937083629108
:0C070000AE17BF07C8F30895F894FFCFB0
:00000001FF
